:020000040000FA
:10000000581B0020A9010000C1280000C3280000DF
:1000100000000000000000000000000000000000E0
:10002000000000000000000000000000C5280000E3
:100030000000000000000000C7280000C9280000E0
:10004000CB280000CD280000CF280000D1280000D8
:10005000D3280000D5280000D7280000D9280000A8
:10006000DB280000DD280000DF280000E128000078
:10007000E3280000E5280000E7280000E928000048
:10008000EB280000ED280000EF280000F128000018
:10009000F3280000F5280000BB010000F72800004D
:1000A000F9280000FB28000000F002F800F050F8EA
:1000B0000CA030C8083824182D18A246671EAB467D
:1000C00054465D46AC4201D100F042F87E460F3EF8
:1000D0000FCCB6460126334200D0FB1AA246AB46EF
:1000E000334318476460000084600000002300244C
:1000F00000250026103A01D378C1FBD8520700D35F
:1001000030C100D50B60704710B5642902D104F0EE
:10011000A5FD10BD782902D104F0D6FD10BD6329DC
:1001200002D105F0A3FC10BD732902D105F0A6FC95
:1001300010BD002010BD1FB505F010FC040000200C
:10014000002105F003FE401C60601FBD10B510BD0E
:1001500005F094FD1146FFF7EEFF02F0ACFC05F050
:10016000BBFD03B4FFF7F2FF03BC02F0DAFB0000B3
:1001700070B505460C46164602E00FCC0FC5103E82
:10018000102EFAD2082E02D303CC03C5083E042E4B
:1001900007D301CC01C5361F03E021782970641C08
:1001A0006D1C761EF9D270BD07488047074800478E
:1001B000FEE7FEE7FEE7FEE7FEE7FEE70448054947
:1001C000054A064B70470000F3010000A90000003B
:1001D000580F0020581B00205813002058130020EF
:1001E0003648006870473548406870473448006AB0
:1001F000704710B53348816B334A1161C16B304889
:1002000041600021016241698907CA0F01219140C3
:100210004269D207D20F9140CAB24169406989044C
:10022000890E51438002294A800E504304F0D1FFC9
:100230002249086010BDF8B5254F0126204D012840
:100240000FD000202862214C1046214604F0C1FF47
:10025000C0B2012808D8EE616F6101210A46134639
:1002600019E02E620C46EFE70021E961FF21013120
:100270008006800A0843686168698007C00F86406D
:100280006869C007C00F86406869F2B28004810EB9
:1002900068698002830E2046084C514360605843D1
:1002A00004F097FF2060F8BD30B4064B9C6B064D00
:1002B0002C61DB6B024C636030BCBCE700000020AB
:1002C0000010004180FD03000012004100127A007E
:1002D000000102003F4A3F4B01218032984201D188
:1002E000116070473B4B2033984201D11162704737
:1002F000394A394B80329842F2D0374B20339842FA
:10030000F4D07047334A334B0121C94380329842BD
:1003100001D1116070472F4B2033984201D11162F7
:1003200070472D4A2C4B80329842F2D02A4B203312
:100330009842F4D070478168802291438160704771
:1003400081688022914381600021016020228260C7
:1003500081617047826880239A4382600A680260E4
:1003600082684B689B0113438A6892001A43CB68EA
:1003700009695B0013431943EF2211408160704704
:1003800020220129816802D0914381607047114386
:10039000FBE70121C16070474069C0B270478068C7
:1003A0008006C00F704781688022114381607047CA
:1003B0000068704701607047406870478068704708
:1003C0008160704700697047406970478069704775
:1003D00081617047001000400020004070B510247B
:1003E000002101604160BF4A426142628162426312
:1003F00021225206904202D1BB4BBC4A0CE0432260
:100400001206904204D1B84BB84A4033403203E060
:10041000B54BB64A803380320020602685005E519D
:100420005151401CA042F9D370BDF0B521220023E8
:1004300010265206904201D1AB4A08E04322120630
:10044000904202D1A84A403201E0A74A80320124FA
:1004500025460F689D402F40AF4243D10F79012FB1
:100460000DD045614D79AD070DD59C001559AD08EE
:10047000AD001551155902273D4315510BE0076991
:100480002F430761EEE79D005759BF08BF00575142
:100490005759274357514C79640704D59C00155987
:1004A00004273D4303E09C0015590427BD43155123
:1004B0004C79A40604D59C00155920273D4303E040
:1004C0009C0015592027BD4315514C79640604D56D
:1004D0009C00155940273D4303E09C0015594027D7
:1004E000BD4315515B1CB342B1D3F0BD7D490160E2
:1004F000002101716221417170470246126800209B
:100500000A4200D001207047006880B2704702465E
:10051000526800200A4200D001207047406880B233
:1005200070470A06920D012312189B02D21811601F
:100530000A0A920010185A0080180160704710B51E
:100540000B069B0D0124CA431B18A4021B191A6039
:10055000090A8900081861004018026010BD10B532
:100560000B069B0D01241B18A4021B191A60090A13
:100570008900081861004018026010BD4160704792
:10058000836A0B438362012A03D0426A0A434262B0
:100590007047026A0A4302627047524A8262012926
:1005A00001D04262704702627047012A03D0426B59
:1005B0000A4342637047026B0A4302637047494A29
:1005C000012901D042637047026370474549816346
:1005D00070470246926B00200A4200D0012070470B
:1005E000F0B50126414D002334469C400C420ED00C
:1005F000002810D0012811D03C4C9F0080343C19B9
:100600002768BF08BF0027602768174327605B1C67
:10061000102BE9DBF0BD9C006419F1E79C00641924
:10062000276CBF08BF002764276C17432764EEE7D9
:100630007CB504461E460D466846FFF757FF6846E0
:100640000095027169462046FFF7EFFE2120400623
:10065000844201D1002006E043200006844201D1FB
:10066000012000E0022032462946FFF7B9FF7CBD99
:100670007CB5044616460D466846FFF737FF002056
:100680006946009508712046FFF7CFFE206A28438F
:100690002062A06A2843A062324629462046FFF71E
:1006A00084FF21204006124E844206D10020012200
:1006B0002946FFF795FF802012E043200006844280
:1006C00007D1012002462946FFF78AFFFF200130AB
:1006D00006E0022001222946FFF782FF01204002A6
:1006E00030607CBDFFFF0000003000410020004171
:1006F00000E100E097490160602181800021C18014
:10070000032201811202428181817047016B4908F5
:10071000490001637047F8B50446006B0E46400877
:1007200040002063FFF762FD8B4F0125002846D073
:100730003D61FFF755FD7A692946914004F049FD76
:1007400007463068000105F0E3F80090384605F0F0
:10075000DFF8009904F0E8FF074605F095F80090EF
:1007600005F0D6F8394605F04DFB062105F0D4F822
:1007700004F0B0FF0022794B04F058FF04F086FF2C
:10078000014600986062A162E06AEE218843B18868
:10079000F288114332890243E06A11430843E06260
:1007A000206B6F49B2890840718911430143206B66
:1007B00008432063206B284320630020F8BD0220FB
:1007C00038617869294681406648B7E710B5C36A41
:1007D00010242343C3624907890E5207520F114365
:1007E000416310BDC16A10229143C162704701602C
:1007F0007047006880B27047C16A01221143C1622C
:1008000070470246526800200A4200D0012070471B
:10081000416070470246926900200A4200D00120E0
:100820007047002A826B01D00A4300E08A4382634A
:1008300070470246126C00200A4200D00120704727
:10084000426C0A4342647047704710B504464648FC
:10085000016B02290AD0006B032807D0FFF7C0FC08
:10086000214604F0B6FC4149086110BDFFF7BBFC0E
:10087000F6E710B5FFF7E9FF3C49886803228008D6
:10088000800010438860002010BD38494A68D207B4
:10089000FCD1086070473548006880B27047334A21
:1008A0000146526800200A4200D0012070472F4ABA
:1008B0000029916801D0014300E0814391607047B5
:1008C0002A4A0029916801D0014300E081439160E8
:1008D0007047264A0146D26800200A4200D0012013
:1008E00070472249CA680243CA6070470160826942
:1008F0001207FCD40846704730B50B4605461C78F5
:10090000002C03D021462846FFF7F0FF5B1C002C8B
:10091000F5D130BD8169C906FCD40068C0B270470A
:1009200000B50346FFF7B1FF184600BD10B50346FA
:100930001C78002C02D02046FFF7A7FF5B1C002C80
:10094000F6D110BD094841688907FCD50068C0B2DE
:1009500070470000127A0000401100410000E03FA3
:10096000FE3CFFFF00127A000010004100600040D2
:10097000007870470170704730B5002405E00D190C
:10098000ADB2455D1555641CA4B29C42F7D330BD91
:1009900070B5002405E00E19155DB6B28555641CCE
:1009A000A4B29C42F7D370BD70B514000FD01A4AA0
:1009B00083049E18F268400795B2184AC00A104393
:1009C0000A4623462946FFF7E3FF2819F06070BD69
:1009D00070B514000FD0104A83049E18B26A400705
:1009E00095B20F4AC00A10430A4623462946FFF72C
:1009F000C3FF2819B06270BD10B500290BD0064A9C
:100A000083049B189A6A4007054CC00A511820437A
:100A100089B20818986210BD000201460000024623
:100A20000000034670B50446082802D90020C043E0
:100A300070BDFA48A604301805461021FFF79AFF4A
:100A40002846FFF795FF0028FAD1F4481F211830F7
:100A50003018FFF78FFFF24801218288A1408A43B6
:100A60008280F04A002061005052ED49891D0855EE
:100A7000EA48203034182046FFF77AFF0028FAD1E0
:100A8000012070BDF8B51C4616460F4605460828DD
:100A900002D90020C043F8BD012F06D0022F04D098
:100AA000042F02D00420C043F8BD6007810FDE4848
:100AB000FAD1002C0CD0012F02D0022F08D103E074
:100AC00021210C42F0D003E0A10601D52106EBD58F
:100AD0002846FFF7A7FF21090901D0483943AF0491
:100AE00010383818FFF746FF002E0AD1CC48CF4AFD
:100AF0000688711C89B20180914202D103218903C9
:100B00000180C648F03038184661C44801213818C1
:100B10000646FFF72FFF3046FFF72AFF0028FAD1DD
:100B2000BF48E107C90F4288A94011434180012114
:100B30008288A9408A438280BA4A002069005052C4
:100B4000B749891D4855B54820303C182046FFF765
:100B50000FFF0028FAD068B2F8BD70B50646082825
:100B600002D90020C04370BDAC48B404103820182E
:100B7000FFF7FEFE0007000F012802D00420C0434B
:100B800070BDA648203020180546FFF7F1FE132857
:100B900002D00220C04370BDA048022120180446A4
:100BA000FFF7E8FE2046FFF7E3FE0028FAD12846CB
:100BB000FFF7DEFE142805D03046FFF733FF032091
:100BC000C04370BD012070BDF7B50D46074608282B
:100BD00002D90020C043FEBD9048BC041038201844
:100BE000FFF7C6FE0007000F012802D00420C04313
:100BF000FEBD8A48203020180646FFF7B9FE1328AC
:100C000002D00220C043FEBD29786A78080280180D
:100C1000AA7800028018EA7800028018421C32D0BC
:100C2000002830D00298002830D081482018FFF7E3
:100C3000A1FE7F486978401E2018FFF79BFE7C4884
:100C4000A978801E2018FFF795FE7948E978C01E24
:100C50002018FFF78FFE764902982739611808623D
:100C60006E48042120180546FFF784FE2846FFF74A
:100C70007FFE0028FAD16A4901204988B84008421D
:100C80001CD00020FEBD0B20C043FEBD0A20C04387
:100C9000FEBD2846FFF76CFE000708D55F48082117
:100CA00018302018FFF766FE0C20C043FEBD30460A
:100CB000FFF75EFE002804D1001FFEBD574810302C
:100CC00025183046FFF754FE1728E2D10120FEBD5B
:100CD00070B50646082802D90020C04370BD4F48B1
:100CE000B50410382818FFF743FE0007000F01284D
:100CF00002D00420C04370BD48480821281804468B
:100D0000FFF738FE2046FFF733FE0028FAD14449AA
:100D100001208A88B04082438A80498808420CD0EA
:100D2000002070BD2046FFF723FE00070BD530469C
:100D3000FFF778FE0C20C04370BD384810302C18E7
:100D4000364820302D182846FFF712FE0028E9D13A
:100D5000012070BDF7B582B002981446082803D967
:100D60000020C04305B0F0BD86042C481038301870
:100D7000FFF7FEFD0007000F012802D00420C0434A
:100D8000F0E7002C0CD02548203030180190FFF7F8
:100D9000EFFD172807D01C2805D00620C043E1E747
:100DA0000D20C043DEE7029801251D4F8540B8881D
:100DB000054211D0194810303018FFF7D9FDC00690
:100DC000C00EC10621D51548102118303018FFF784
:100DD000D1FDB888A843B8801548D93030180090A4
:100DE000FFF7C6FD8006000C844200D90446009837
:100DF000406887B20198FFF7BBFD17281AD01C285E
:100E000018D00298FFF70EFEC7E7000718D5029822
:100E1000FFF708FE0C20C043A4E7000010000146C5
:100E200008000020E8010020FAFFFFFFF0FF0000AB
:100E300027010146FE484088054203D0BC4201D943
:100E400000208FE7BC42D2D8224603990298FFF7D0
:100E5000ABFDF848202130180646FFF78BFD3046E1
:100E6000FFF786FD0028FAD1F14881880D4385807F
:100E7000204677E7F7B582B002981446082802D9D1
:100E80000020C0436EE78704EA4810383818FFF79F
:100E90006FFD0007000F012802D00420C04361E766
:100EA000002C19D0E4483818FFF762FD8006000CCA
:100EB000A04200D20446DF48203038180090DE48B7
:100EC00020383E18706A85B20098FFF751FD172848
:100ED00015D01C2803D00CE00D20C04342E7002DA4
:100EE0001AD13046FFF744FD7168800289B288420A
:100EF00005D10298FFF796FD0620C04332E702991C
:100F000001208840CA494988084203D0002D03D1F6
:100F1000002027E7002DD5D0A54200D22C4622463E
:100F200003990298FFF754FDC2484021381805463E
:100F3000FFF720FD2846FFF71BFD0028FAD12046C9
:100F400010E7FFB583B003981E461546082803D95D
:100F50000020C04307B0F0BD8404B6481038201804
:100F6000FFF706FD0007000F022804D0042802D076
:100F70000420C043EEE7002D1DD0307871780002C8
:100F80004018B17800024018F1780002C84202D13E
:100F90000B20C043DEE70C9800280FD0A548203076
:100FA00020180746FFF7E4FC42280AD0222808D080
:100FB0000620C043CEE70D20C043CBE70A20C04344
:100FC000C8E79D483178F9382018FFF7D3FC9A48D4
:100FD0007178FA382018FFF7CDFC9748B178FB38C4
:100FE0002018FFF7C7FC9448F178FC382018FFF769
:100FF000C1FC90490C98F031611808628E48203885
:1010000020180190FFF7B4FC8006000C854200D93F
:10101000054603990120884000900198406886B2F7
:101020003846FFF7A5FC002808D081490098498878
:10103000084206D0B54204D900208BE70320C04304
:1010400088E7B542E9D82A4604990398FFF7ACFC33
:101050007848202120180746FFF78CFC7548183087
:1010600026183846FFF784FC0028FAD17148103062
:1010700024182046FFF77CFCC006C00EC10605D52B
:1010800030461021FFF776FC284663E70007F0D5CD
:1010900030460821FFF76EFC0C20C0435AE7FFB52D
:1010A000002485B00646082802D9601E09B0F0BDAC
:1010B0006048B50410382818FFF75AFC0490000760
:1010C000000F022804D0042802D00420C043EDE71A
:1010D0000798002805D059487700C05B002803D046
:1010E00022E00D20C043E1E7534820382818039040
:1010F0005048203028180125B54002900398406AD6
:1011000084B20298FFF734FC002806D04848408893
:10111000054207D0002C03D006E00320C043C5E7FA
:101120000020C3E7002CE9D041480021801D8155F3
:101130000498B20441073F48490F151802291FD0EF
:10114000042957D021463046FFF756FC3B48C4538C
:1011500028464021FFF70EFC2846FFF709FC00282F
:10116000FAD13648C15B091B0904090CC15305D0EB
:101170002F480122801D815D11438155204695E74E
:101180002E4CE05B002865D1082269463046FFF707
:101190001FFC28464021FFF7EDFB2846FFF7E8FB40
:1011A0000028FAD1684601780898017068464178AD
:1011B0000898417068468178089881706846C178BF
:1011C0000898C17068460E99007908800102684647
:1011D000407908180E9908806846807901026846AF
:1011E000C0790818E05332E0224630460699FFF7EE
:1011F000EFFBADE7114CE05B00282BD102226946E2
:101200003046FFF7E5FB28464021FFF7B3FB2846B1
:10121000FFF7AEFB0028FAD1684600780102684665
:101220004078081880B20649E05388420FD909E097
:10123000080000201000014620020146E8010020BD
:10124000EA0500003046FFF7EDFB9E482EE79E4979
:1012500080208855E45B07988442C5D90446C3E7DB
:10126000F8B514460646082802D90020C043F8BD48
:10127000954B96489B1F0927B2045D88FF431018C1
:101280000B0004F04EFD0805171B1D252E373140BD
:1012900021780120B040012902D0002905D032E098
:1012A0008949891F284348802BE08749891F854346
:1012B0004D8026E0F540E807C00F19E0844801E0C2
:1012C000834820301018FFF753FB8002208018E07D
:1012D00020781F2817D8C1067C48C90E001D101899
:1012E0000DE07A48001F1018FFF742FBC006C00E41
:1012F000207006E021781F2905D8C906C90EFFF71E
:1013000039FB0120F8BD3846F8BDF8B51546082868
:1013100002D90020C043F8BD84046D4B6B4A6B4872
:10132000803BDC3224380427E618A2182018FF433B
:101330000B0004F0F6FC084F050910421316444F49
:1013400062482978E43002E060482978E0302018CB
:10135000FFF710FB31E0288810612EE0288810622A
:101360002BE0FFF705FB0007000F01282DD13046C9
:10137000FFF7FEFA002802D00120C043F8BD534811
:101380002221143820180546FFF7F4FA4F48001FB1
:1013900026180DE03046FFF7EBFA000708D54B485A
:1013A0000821001D2018FFF7E5FA0C20C043F8BD06
:1013B0002846FFF7DDFA0028ECD10120F8BDFFF741
:1013C000D7FA0007000F012801D03846F8BD297868
:1013D0003046BDE70920C043F8BDF8B514460646BF
:1013E000082802D90020C043F8BDB5043748374A61
:1013F000374B2438DC32EF182818AA180B0004F0F9
:1014000090FC0D080D121517305E323E40424852D6
:101410005E00FFF7ADFA0009000102E02B48E4305E
:1014200033E020703DE02948E0302EE01069F8E715
:101430002748D9382818FFF79BFA20702448DA3853
:101440002818FFF795FA60702148DB382818FFF755
:101450008FFAA0701E48DC382818FFF789FAE07070
:101460001FE0106A1CE0FFF783FA0007000F012855
:101470001FD1174880382818FFF77AFA10E07868EB
:101480000EE0786A0CE011480C302818FFF770FA6B
:10149000C7E7FFF76DFA0128F3D00E497000085A2C
:1014A00020800120F8BDFFF763FA0007000F012834
:1014B00002D00420C043F8BD0348805DB1E701209D
:1014C000C043F8BD17FCFFFF0E00002024000146BA
:1014D00000020146E80100207047704770477047DE
:1014E0000078704701707047002070477047FE4ACF
:1014F000002804D0002902D0D16090607047FB48DA
:101500009060FB48D0607047F74A002804D000295B
:1015100002D0516110617047F6481061F648506181
:10152000704710B5F04A1388DC05FDD5002804D0BB
:10153000002902D0D161906110BDF0489061F0485F
:10154000D06110BD10B5E84A13889C05FDD5002870
:1015500004D0002902D0D161906110BDE9489061AA
:10156000E948D06110BD0020C04370470020C0434F
:10157000704710B5E548FFF7FBF90446E348103023
:10158000FFF7F6F90002001980B210BD10B5C1B224
:10159000040A09090901DD48FFF7ECF9DB48214697
:1015A0001030FFF7E7F910BDD84810B5001FFFF75E
:1015B000DFF90446D5480C30FFF7DAF900020019CC
:1015C00080B210BD10B5C1B2040AD04809090901A2
:1015D000001DFFF7CFF9CD4821460C30FFF7CAF9BF
:1015E00010BDF0B593B0CA48FFF7C2F91190C848D2
:1015F000401EFFF7BDF9C64C1090A41E2046FFF711
:10160000B7F9651E0F902846FFF7B2F90E90A01D9E
:10161000FFF7AEF90D90601DFFF7AAF90C90BC48DA
:101620000830FFF7A5F90B90B948C01DFFF7A0F9E6
:10163000B74E0A90B61D3046FFF79AF90990E01DA3
:10164000FFF796F90890B01DFFF792F90790701D0B
:10165000FFF78EF90690301DFFF78AF90590F01C10
:10166000FFF786F90490AA481030FFF781F9A84FD8
:1016700003900F373846FFF77BF90290781EFFF78B
:1016800077F90190F01DFFF773F900908021A148D0
:10169000FFF770F99F48FFF76BF9A01C1199FFF74E
:1016A00069F9601C1099FFF765F920460F99FFF75B
:1016B00061F928460E99FFF75DF9A01D0D99FFF716
:1016C00059F9601D0C99FFF755F9B01C0B99FFF7FC
:1016D00051F9701C0A99FFF74DF930460999FFF747
:1016E00049F9E01D0899FFF745F9B01D0799FFF783
:1016F00041F9701D0699FFF73DF9301D0599FFF777
:1017000039F9F01C0499FFF735F9781C0399FFF7B4
:1017100031F938460299FFF72DF9781E0199FFF744
:1017200029F9F01D0099FFF725F913B0F0BDF8B5C0
:101730000D4606460024FFF754FF002E14D0002269
:10174000B05C521C001952B244B2082AF8DB102CCB
:1017500017DC714F0024A004315DC019FFF70AF9AE
:10176000641C64B2082CF6DB002D19D00021084659
:101770002A5C401C511840B249B20828F8DB1029F5
:1017800002DD0020C043F8BD634E00242036A004D3
:10179000295D8019FFF7EEF8641C64B2082CF6DBB3
:1017A0000020F8BD70B50C460246002108464D1ECB
:1017B000130004F0B6FA0906091511181C2E2E2084
:1017C0002E00FFF70EFF22E0002C02D0214620461B
:1017D0000831FFF7ACFF70BD2088FFF7F3FE16E07D
:1017E000FFF7E2FE05E02088FFF7D0FE0FE0FFF7ED
:1017F000C0FE20800BE03C4882782270C278627084
:101800000279A2704279E2708079207161710020C2
:1018100070BD284670BD10B504463D484130FFF705
:10182000A7F820703A483D300068608010BD10B5C0
:1018300001780446002903D035484130FFF79AF873
:10184000334960883D31086010BD10B53148FFF75D
:101850008FF810BD70B50446C720044202D00020A6
:10186000C04370BD2B4D2846FFF782F82043014648
:101870002846FFF77FF8002070BD10B504462448C5
:10188000FFF776F820702248401EFFF771F860706D
:101890001F48801EFFF76CF8A0701D48C01EFFF7A0
:1018A00067F8E0701A48001DFFF762F820711848C9
:1018B000C01CFFF75DF8607115480830FFF758F855
:1018C000A0731348C01DFFF753F8E0731048801D44
:1018D000FFF74EF820740E48401DFFF749F860747A
:1018E0000B480C301AE0000020000020D914000042
:1018F000DB140000DD140000DF140000E114000020
:10190000E5140000E9140000ED1400000421004675
:10191000036000460023004600020146FFF728F856
:10192000A0725F48FFF724F8E0725D48401EFFF7A1
:101930001FF820735A48801EFFF71AF86073584842
:10194000401DFFF715F8A0715548001DFFF710F86E
:10195000E0715348C01CFFF70BF820725048801C00
:10196000FFF706F860724F480178A1744178E1747E
:1019700081782175C07860754A48401E0078A0754E
:1019800010BD10B50446017845480B38FEF7F2FF4C
:10199000434861780C38FEF7EDFF4148A1780D38D7
:1019A000FEF7E8FF3E48E1780E38FEF7E3FF3C48DB
:1019B0002179C01FFEF7DEFF394861790838FEF74C
:1019C000D9FF3748A17BC01EFEF7D4FF3448E17B26
:1019D000001FFEF7CFFF3248217C401FFEF7CAFFF1
:1019E0002F48617C801FFEF7C5FF2D48A17A401C5F
:1019F000FEF7C0FFE17A2A48FEF7BCFF2848217BAA
:101A0000401EFEF7B7FF2648617B801EFEF7B2FF3F
:101A10002348A179401DFEF7ADFF2148E179001D63
:101A2000FEF7A8FF1E48217AC01CFEF7A3FF1C4842
:101A3000617A801CFEF79EFF1A48A17C0170E17C50
:101A40004170217D8170617DC1701649A07D491E64
:101A5000087010BD10B50C46030004F062F90604CE
:101A6000080C1014181D0846FFF78BFF12E00846FB
:101A7000FFF703FF0EE00878FFF7ECFE10BDFFF75D
:101A8000E4FE207006E00846FFF7D1FE02E00846BB
:101A9000FFF7C1FE002010BD0020C04310BD0000B4
:101AA0000E6000461900002070B5914C0546208854
:101AB000286161882846FEF734FD012000F054FFBC
:101AC00061882846FEF73BFD012000F04DFF70BD08
:101AD000F8B507460020864D04464600698838461A
:101AE000FEF71FFD012000F03FFF69883846FEF732
:101AF00026FD012000F038FF29883846FEF7FDFC5E
:101B00003043641C102CE8D3F8BD70B5784C054602
:101B100020886861012000F027FF61882846FEF7D1
:101B200000FD012000F020FF61882846FEF707FD38
:101B3000012000F019FF70BDF8B5074616462020B9
:101B4000801B81400C466A4D18E02988002C3846DD
:101B500002DAFEF7E6FC01E0FEF7F1FC012000F0FE
:101B600003FF69883846FEF7DCFC012000F0FCFE2C
:101B700069883846FEF7E3FC6400761E002EE4D147
:101B8000F8BD70B50C46002105462022C943FFF779
:101B9000D3FF042206212846FFF7CEFF5448052232
:101BA00041682846FFF7C8FF052221462846FFF76F
:101BB000C3FF2846FFF7A9FF2846FFF789FF044621
:101BC0002846FFF771FF204670BD10B54320012164
:101BD0000006FFF7D6FF4007C00F10BD70B50C46DA
:101BE0001646002105462022C943FFF7A5FF04221F
:101BF00005212846FFF7A0FF3D48052241682846F9
:101C0000FFF79AFF052221462846FFF795FF02229B
:101C100011462846FFF790FF102231462846FFF76D
:101C20008BFF2846FFF740FF70BD01221203904250
:101C300003D021210902084002460021432000066A
:101C4000CCE7F8B5002543273F06002400212022D9
:101C5000C9433846FFF770FF042206213846FFF7D4
:101C60006BFF052221463846FFF766FF052201215A
:101C70003846FFF761FF3846FFF747FF3846FFF762
:101C800027FF06463846FFF70FFF002E02D01948FF
:101C9000864209D1641C082CD8DD6D1CEDB216A05B
:101CA00002F06AFF022DD0D32046F8BD7CB5054670
:101CB00014460E466846FEF719FC30462043009055
:101CC0000120694608712846FEF7AFFB0122214634
:101CD0001046FEF785FC012231461046FEF780FCD7
:101CE000034D6E802C80FFF7ACFF68607CBD000068
:101CF00040000020FFFF00000D0A70687920696431
:101D000020646574656374206572726F7221210DA1
:101D10000A00000010B5FE4CFE482178FEF72AFEAE
:101D2000FC486178401EFEF725FEFA48A178801E27
:101D3000FEF720FEF748E178C01EFEF71BFEF548CF
:101D400008342178001FFEF715FEF2486178401F25
:101D5000FEF710FEEF48A178801FFEF70BFEED485E
:101D6000E178C01FFEF706FEEA48241F21780838F4
:101D7000FEF700FEE74861780938FEF7FBFDE5480D
:101D8000A1780A38FEF7F6FDE248E1780B38FEF755
:101D9000F1FD10BD10B5E04C80212046FEF7EAFDB4
:101DA0002046FEF7E5FDFFF7B5FFD94CD94835349D
:101DB00021781038FEF7DEFDD64861781138FEF73D
:101DC000D9FDD448A1781238FEF7D4FDD148E17886
:101DD0001338FEF7CFFDCF4821790C38FEF7CAFD46
:101DE000CC4861790D38FEF7C5FD10BD10B5CA4C61
:101DF00080212046FEF7BEFD2046FEF7B9FDC44C0B
:101E0000C448353421781038FEF7B4FDC1486178F4
:101E10001138FEF7AFFDBF48A1781238FEF7AAFDD2
:101E2000BC48E1781338FEF7A5FDBA4821790C3893
:101E3000FEF7A0FDB74861790D38FEF79BFD10BD98
:101E4000B34B10B5DB1FB54C5C62B54C9C62B54C16
:101E5000DC62002800D05862002900D09962002A74
:101E600000D0DA6210BD30B5A94B0120DB1F996BA1
:101E700008704870062088700020C8705A6B120ED7
:101E80000A715A6B120C4A719A8E120A8A719A8ED2
:101E9000CA71996B802208818A72C872996B1A463E
:101EA000087348738873C873087448748874C87456
:101EB000087548758875C875087648768876C87636
:101EC0003C3214780C7754784C7794788C77D478AB
:101ED000CC770C4615792034257052796270062231
:101EE0008C18521CD2B22077102AF9D39A6B002199
:101EF00054182034491CC9B220734029F8D39A6B76
:101F0000002154186034491CC9B220738029F8D3C9
:101F1000986B6321E03001738222427353228273F3
:101F2000C17330BDFEB5FFF79EFF79483522C01F53
:101F3000836BF021CA540122F121CA54F221CA5400
:101F40003D22F321CA540722F421CA540122F5216B
:101F5000CA5401463C310A78F621CA5401463C3144
:101F60004A78F721CA5402463C329478F822D45475
:101F700002463C32D478F922D45402463C321479D9
:101F8000FA22D45402463C325479FB22D4540C2118
:101F9000FC22D1540027FD21CF5412220446394699
:101FA000423406E09E18E036521C491C357392B24A
:101FB00089B2655C002DF5D1846B554BA61835337D
:101FC000DD78E0363573521C92B2A6181D79E036E2
:101FD0003573521C92B2A5185B79E0352B73521CF5
:101FE00092B2CB1C511A0919E0310B72816B372365
:101FF0008C18E0342373521C92B28C18521C92B28B
:102000008D180623E03423730124E0352C73521C11
:1020100092B28D180324E035521C2C7392B28C18A6
:10202000E0342373521C92B28C180F23E0342373D4
:10203000521C92B28B183A24E0331C73521C92B299
:102040008B18E0333B24521C1C7392B2FF238C1874
:10205000E0342373521CFF2492B2393404E08D180B
:10206000E035521C2F7392B2A242F8D369460B712D
:102070004B718B71CB71432100918922816B01AB34
:1020800092008078FEF75DFFFEBDFEB5FFF7EBFE28
:102090001F4C0020E41FE11D20560B462933FF276B
:1020A00003284AD0042848D06846077147718771D1
:1020B000C771A26B3520F025A8540120F125A85442
:1020C0000320F225A8543D20F325A8540720F42529
:1020D000A8540120F525A8540D48F6253530007880
:1020E000A8540B48F72535304078A8540848F825FF
:1020F00035308078A8540648F9253530C078A85482
:102100000348FA2535300079A854014835300BE0F2
:102110004F0000201360004600230046151D0000FC
:10212000951D0000ED1D00004079FB25A8546D466B
:10213000ED791020FF2D16D039E0A06B00228272BD
:10214000C2720A7802734A7842738A788273CA78B4
:10215000C2731A78684602715A7842719A7882710D
:10216000DA78C271A5E73225FC2085540425FD20CC
:1021700085540E78FE2086544E78FF208654887849
:10218000AE01B054C978701C81543621401C815472
:10219000401C85541978401C81545978401C815446
:1021A0009978401C8154D978401C81541C20131804
:1021B0000C21E0331973401C13180021E03319730C
:1021C000F94D401C05E01618E036401C337380B210
:1021D000491C6B5C002BF6D1A36BF34A1E18921FAF
:1021E000D578E0363573401C80B21E181579E0367C
:1021F0003573401C80B21D185279E0352A73401C9B
:1022000082B2C81C511AC918E0310872A06B37217C
:102210008318E0331973521C91B243180822E0333B
:102220001A73491C89B243180122E0331A73491CFE
:1022300089B243180322E0331A73491C89B2431848
:102240000622E0331A73491C89B243180F22E03387
:102250001A73491C89B242183A23E0321373491C9D
:1022600089B242183B23E032491C137389B24218E9
:102270001F23E0321373491C89B242182123E03234
:102280001373491C89B24218E0321773491C0022AB
:10229000FF2389B2393303E04518E0352A73491C1E
:1022A0009942F9DB43200090892201AB9200A0788B
:1022B000A16BFEF746FEFEBD1CB5FFF7D4FDBA4884
:1022C00000214238806B35228172C172F0210A549C
:1022D0000122F1210A540422F2210A543D23F32160
:1022E0000B540722F4210A540122F5210A54AE4965
:1022F000F622891F0B7813544B78F72213548B78EE
:10230000F8221354CB78F92213540B79FA22135480
:102310004A79FB210A543222FC210A540422FD216D
:102320000A54A1493B390A78FE210A549E493B3997
:102330004A78FF210A549C493B398A78FF210131B0
:102340000A5499493B39CA78FF2102310A5436228E
:10235000491C0A540422491C0A549349FF22123989
:102360000B78053213544B78521C13548B78521C43
:102370001354CA78FF2108310A54FF22491C0A5419
:102380001D210023FF2239324418E034491C2373F5
:102390009142F9DBFF206946087148718871C87164
:1023A00043200090804889224238816B01AB920023
:1023B0008078FEF7C6FD1CBD7FB57B4C7B4A423C56
:1023C000A07881048918496A0A04120C27D001A94F
:1023D000009102ABA16BFEF762FE82B26846808874
:1023E00043283CD1A06B21463C31037F0D78AB42A2
:1023F00015D1457F4B789D4211D1837F8D78AB42BB
:102400000DD1C37FCD78AB4209D1034620331D786F
:102410000E79B54203D15B7849798B4202D0002016
:1024200004B070BDF03000258118F03915E0027855
:10243000332A3ED008DC002A15D0012A18D0032AFE
:102440001AD0062A06D125E0352A0ED0362A3FD0EA
:10245000FF2A06D04278801C80188842E7D368B2F1
:10246000DEE70846F9E7401CF7E78578C01CF4E78B
:102470004D4A8378333A2EE04B4A43788678373A90
:102480001670C6785670067996704679801DD6709B
:10249000C0180CE0444B427886782F3B1E70C678FB
:1024A0005E7006799E704679801DDE708018001F70
:1024B000D3E78278A261C37812029A18A2610379E5
:1024C00012029A18A261437912029A18A26109E0D5
:1024D000354A8378123A1370C37853700379937036
:1024E0004379D370801DB8E72F4800214238C1617D
:1024F000052202624170704770B52B4C0125423CA9
:102500006157002622469057022917DAE269216AAC
:10251000914223D2012804D0022805D0042805D1F5
:1025200002E0FFF7FFFC01E0FFF7AFFDE661E069C5
:10253000401D20626078401C60700FE0012804D0CC
:10254000022805D0042807D102E02670002503E008
:10255000FFF7E8FC01202070FFF7C6FF284670BD9A
:10256000F8B5134E3046FEF703FA05460321304610
:10257000FEF700FA0C4B0F483B3BDC1F009011228A
:102580000DA1A078FEF7DDFC074629463046FEF790
:10259000F1F90D371AD0FFF78FFEE069E169091AEA
:1025A0000229FBD30020F8BD8A000020000201466A
:1025B0004460004688130000434845434B5F495040
:1025C0005F434F4E464C4943540000000120EAE768
:1025D000F8B5B74C207806281ED0A078B5498004FD
:1025E0004018FEF7C5F9222805D000234422022115
:1025F000A078FEF747FA0125FFF7DEFEC1B2002200
:10260000A256AB4800260127C01D130003F089FB2A
:1026100005060D1C314C2F000520C4E706704670DE
:102620008670C670FFF77EFC5EE002291CD1A16BAC
:102630000A7C02704A7C42708A7C8270C97CC170BC
:10264000FFF723FD02204BE005290BD1FFF788FFA0
:10265000002801D0606A3FE0FFF746FFE06A80474C
:10266000267004E006293DD0FFF746FF05462846C0
:1026700099E7A16904254A1CF9D0E2694908914209
:10268000F5D28B490278C91C0A7042784A70827868
:102690008A70C078C870606B401C6063FFF7F5FCFF
:1026A000FFF722FF04201BE004250529DAD1804929
:1026B0006670C91C0A7803789A420BD14A7843782D
:1026C0009A4207D18A7883789A4203D1C978C07830
:1026D000814202D0A06A03258047FFF705FF03204F
:1026E0002070C4E7FFF700FF2770C0E710B5704CFB
:1026F000A078FEF797F90620207010BDF3B56E4F55
:1027000083B00646002538460095FEF731F9684C3F
:102710003C342070781EFEF72BF96070B81EFEF76F
:1027200027F9A070F81EFEF723F9E070381DFEF7B8
:102730001FF92071F81CFEF71BF960710146207823
:102740006278E3781043A2781A4310432279104349
:1027500008431FD1257008206070DC20A070E57050
:102760002571294665713846FEF704F96178781EAF
:10277000FEF700F9A178B81EFEF7FCF8E178F81E24
:10278000FEF7F8F82179381DFEF7F4F86179F81CA6
:10279000FEF7F0F8464F4949BE700498B863E078F8
:1027A0006379421821798A1848409A18584080184D
:1027B00078636846017840480C461030FEF7DAF836
:1027C00068464078029001463B480F30FEF7D2F849
:1027D000684680780190014637480E30FEF7CAF807
:1027E0006846C678344831460D30FEF7C3F83248A3
:1027F00021461030FEF7BEF82F4802990F30FEF741
:10280000B9F82D4801990E30FEF7B4F82A48314640
:102810000D30FEF7AFF8284821460830FEF7AAF839
:1028200025480299C01DFEF7A5F823480199801D8F
:10283000FEF7A0F820483146401DFEF79BF8FFF751
:1028400053FE3D7005B0F0BD1948C169491CC16116
:1028500070471749C91D0A7802704A7842708A7811
:102860008270C978C170704711490B310A780270C3
:102870004A7842708A788270C978C17070470C4972
:102880000F310A7802704A7842708A788270C9786B
:10289000C1707047064913310A7802704A78427055
:1028A0008A788270C978C170704701488069704722
:1028B000480000203000014603600046785634127C
:1028C0007047704770477047704770477047704750
:1028D0007047704770477047704770477047704740
:1028E0007047704770477047704770477047704730
:1028F00070477047704770477047704710B5C0B257
:10290000FEF70EF810BD10B5FEF71CF8FEF708F83C
:1029100010BD0020C043704710B5C0B2FEF700F8EC
:1029200010BDFEE738B501F0DDFD0446AAA002F0B7
:1029300023F9AAA1B6A002F01FF9B7A002F01CF972
:10294000B9A002F019F9C2A00090A37D627D217D9B
:10295000C1A002F011F9A1A1ADA002F00DF938BD9E
:1029600003C880F30888084701B582B0FDF738FC3A
:10297000C44902F02EFC0299484300E0401E00903A
:102980000028FBD10EBD00B5C1B000216A460B780E
:102990005354491C0829FAD30821435C5354491C59
:1029A000A829FAD3A82001781154401CFF28FAD98D
:1029B00072B600231A461946122001F08BF9FF2344
:1029C00001336A460021222001F084F962B641B049
:1029D00000BDF0B58FB001F085FD044600200090E9
:1029E0000190182102A802F094FB182108A802F017
:1029F00090FBE07D0025FF2859D1207EFF2856D18D
:102A0000607EFF2853D100236A461946184601F01C
:102A1000CFF968460078FF2807D169464978FF2931
:102A200003D169468978FF2910D0E075684640785F
:102A300020766846807860766846C078A0766846DA
:102A40000079E07668464079207731E08E48882129
:102A50002746017002AE40378CA002F08DF80025A9
:102A6000FDF770FF70556D1CEDB2152DF8D308A958
:102A700002A800F062F900280BD0787B002803D070
:102A800008A963A002F078F8182102A802F041FB1F
:102A9000E2E7002001F0A5F900232246173219468B
:102AA000184601F0CCF901F01FFD01F007FE0125E9
:102AB00028460FB0F0BD08B501F014FD044601F042
:102AC000B2FC774900200A46FDF7EEFB01F0DCF985
:102AD00001F057FAFEF785FDFDF782FB694902F028
:102AE00078FB7049086001F075FC01F0B5FDFFF757
:102AF00070FF002807D007200003FFF744FFFF20E6
:102B0000F530FFF731FF2646A036307A0127002541
:102B1000012818D1022001F0E3FA00902146357215
:102B2000AB31002002F04DFB2A20075501F0C6FD15
:102B30000098802807D107200003FFF724FFFF201B
:102B4000F530FFF711FF072636033068401C0DD023
:102B500020462030817A00293AD001F082FC0028FA
:102B600004D03168706881F3088880472A200555B1
:102B70004034607B002801D0FFF7D4FE01F05AFFFB
:102B8000607B002801D001F029FE432424060123A4
:102B9000002220212046FDF74BFD01230022402189
:102BA0002046FDF745FD40480770002001F061FC1C
:102BB0003E4C00F022FF2078002806D0002001F0D3
:102BC00070FC012001F06DFC257001F090F9F0E738
:102BD000877201F073FDC9E70D0A00003D3D3D3DE0
:102BE0003D3D3D3D3D3D3D3D3D3D3D3D3D3D3D3D15
:102BF0003D3D3D3D3D3D3D3D3D3D3D3D3D3D3D3D05
:102C00003D3D3D3D3D3D3D3D3D3D3D3D3D3D00006E
:102C100025730D0A000000002057495A37353053FC
:102C200052200D0A00000000203E3E2057495A6EF7
:102C300065742053657269616C20746F20457468F7
:102C400065726E6574204465766963650D0A0000DF
:102C5000537461626C650000203E3E204669726DCF
:102C6000776172652076657273696F6E3A20426F84
:102C70006F742025642E25642E25642025730D0A8B
:102C800000000000102700009C000020494E505515
:102C900054204649525354204D41433F0D0A0000F1
:102CA00000127A000020004698000020AC010020AD
:102CB000F8B500270D4604460F70F94E09E002F002
:102CC0004BF902462046316802F068F9002804D02A
:102CD000361D30680028F2D129E03068002826D05F
:102CE000EF48301A8005060E2B2E07D02C2E11D05F
:102CF000A11C284602F00AF93046F8BD207A0D28BA
:102D000015D1607A0A2812D10622A11C284602F0A9
:102D1000A1F9F1E7002002E02954401CC0B22118BB
:102D200089780D29F8D12118C9780A2901D0FF2006
:102D3000F8BD2F5428184770DEE7F0B597B00E465F
:102D4000074601F0CFFB0024149010A80476254616
:102D50000421304602F0DBF9D2A13846FCE304A995
:102D6000FFF7A6FF0746FF287BD004A802F0F4F87F
:102D700080B200906846007C002826D0C84988228E
:102D80002439097811426DD03B0002F0CAFF3AF2B3
:102D9000F1F1F0EFEEEDEEECEBEAE9E8E7E6E5E481
:102DA000E3E3E3E3E3E3E2E1E0DFDEDDDCDBDAD92A
:102DB000D8D7D6D5D4D3D2D1D1D0D1D1D1D1D1D1E8
:102DC000D1D1CF6AEED1D1CECD6AB548B900405845
:102DD0003B000178317040787070B61C02F0A1FFA2
:102DE0003A1E30454A4EE953E9575B5F62676A75A0
:102DF0007881E8E8E98BE8E88D9FEAEDE5E4E3E235
:102E0000E1E0DFDEDDDCDBDAD9D8D8D7D8D8D6D51B
:102E1000D4D3D2D1D0CFE9CECDCCCBCA1498149B89
:102E2000149A1499407E1B7FD27E897E6F460FC70D
:102E300014989DA1037EC27D304601F0ABFECAE12D
:102E4000A1A1A3A002F068F900281498807D009049
:102E50001498437D027D06D09FA1304601F09AFE72
:102E6000B9E1F0E3F0E39FA1F7E7149AA0A130469F
:102E7000521D00E114986030C27802E014982030AE
:102E8000BFE09CA17AE1149860308278F9E7149849
:102E90004030427BF5E7149840300278F1E714980F
:102EA000413001E01498433041780078B8E014983C
:102EB0002130B3E01498149920300078C97F009134
:102EC00001901498837F427F13E0149820300AE029
:102ED000149820300279C178019200918378427869
:102EE00007E014986030027AC179019200918379E9
:102EF000427981A10FE0834AC3E714984079002802
:102F000056D014991498097FC07E009014980191AE
:102F1000837E421D7CA1304601F03CFE5BE11498AB
:102F20002330417B007B7BE0B0E398E37EE356E314
:102F3000C7E344E335E324E316E3E9E2DBE2CEE270
:102F4000C1E2A9E29BE28DE27EE270E247E23DE26D
:102F500030E222E20BE20BE2F5E1E9E1D0E1C2E18D
:102F6000B5E1A7E199E18CE17EE16EE370E162E118
:102F70005EE147E139E134E125E118E1F2E011E1F8
:102F80000CE1FDE0F2E0E6E0DEE0D6E07FE07BE0B1
:102F900077E067E05CE053E04EE048E043E03BE090
:102FA00035E030E02BE026E021E01CE005E001E028
:102FB00064E0FAE0149821302BE014986030017935
:102FC000002907D0407A002858D0149A48A13046EA
:102FD000693250E014982030827B417B019200914D
:102FE000037BC27A85E714984030827949E71498C8
:102FF0004030C27945E714984030027A41E714988E
:103000004030427A3DE714984030827A39E714988C
:103010002330417C007C03E014982330417D007D07
:103020000A0202432DE714982030427E29E71498C3
:1030300039A12030827EA1E014988030C27E20E742
:1030400014988030C17F0091837F427F34A104E7D0
:1030500014984030807B002810D0149A24A1304668
:103060004E3208E014984030007E002806D0149AB2
:103070001FA13046583201F08DFDACE020222CA17A
:103080007CE0812000029CE04120400299E004485D
:1030900088212438007808424CD0102091E00000AC
:1030A000C00000200D0A0000253032583A25303289
:1030B000583A253032583A253032583A253032586D
:1030C0003A25303258000000446576656C6F700018
:1030D000537461626C65000025642E25642E25649E
:1030E0000000000025642E25642E256464657600AA
:1030F000257300002564000025642E25642E2564B8
:103100002E256400D60B000025732D25303278253E
:1031100030327825303278002530325800000000F7
:103120002530325825303258253032580000000002
:10313000256300004320400243E0FE4888210078D8
:103140000842F7D020203CE0FA4888210078084265
:10315000F0D0802035E01498F74940304079800065
:103160000A580AE01498403042798AE614982030D0
:10317000807A8100EF4808304258F0A130467AE763
:10318000EC48017888200142D4D0149923314A7B3D
:103190000B7B11021943012904D012E014988030EE
:1031A000027F6EE62120C0010BE0002269E6E148C3
:1031B000882100780842BDD0149801212030817206
:1031C0009020044307E01498DDA14030037BC27ACD
:1031D000304601F0DFFCDC4804420AD0B61E3570F0
:1031E00064E214988030827E4BE621208002044302
:1031F000BCE7D6A1304601F021FF304601F0ACFE1D
:10320000861953E21498C07D002807D11498007ED7
:10321000082803D11498407EDC2809D0149ACCA148
:1032200004A8173200F020FDB8E1852000023CE23E
:103230008320000239E200F0BEFC10A90876009954
:103240000129F2D10128F0D814996031C8702DE21B
:1032500000F0B1FC10A9087600990129E5D10328F6
:10326000E3D81499203115E100F0A5FC10A90876E7
:1032700000990129D9D10128D7D8149960318870D3
:1032800014E200F098FC10A9087600990129CCD12D
:103290000128CAD81499403196E000F08CFC10A99E
:1032A000087600990129C0D10128BED8149940316F
:1032B0000870FBE104A801F0DCFD0146A54881424D
:1032C000B3D8149841300170090A4170EEE104A8A6
:1032D00001F0CFFD9F498842A7D814994331087067
:1032E000000A4870E2E104A801F0C3FD01469948D4
:1032F00081429AD8149821300175090A4175D5E1A7
:1033000015A904A800F0F4FB00288ED010A8017DB8
:103310001498417710A8417D1498817710A8817D79
:103320001498C17710A8C17D149820300170BDE1B8
:1033300015A904A800F0DCFB0028E6D0149810A919
:10334000097D20301EE015A904A800F0D1FB00285B
:10335000DBD0149810A9097D2030417010A9497D57
:10336000817010A9897DC17010A9C97D01719DE18D
:1033700015A904A800F0BCFB0028C6D010A9149819
:10338000097D6030417110A9497D817110A9897D45
:10339000C17110A9C97D017288E100990E2984D8F4
:1033A000202804D0149804AA64A1401D10E11498A8
:1033B00045717BE104A801F05CFD664988428BD829
:1033C000149923310873000A48736FE104A801F0CF
:1033D00050FD604988428CD8149921317BE015A9B1
:1033E00004A800F085FB002811D0149810A96030C3
:1033F00005711498097D2030C17210A9497D0173AF
:1034000010A9897D417310A9C97D81734EE114987B
:103410000121603001716946097C202905D014988A
:1034200004A9693001F072FD40E145723EE104A853
:1034300001F012FD009980B20229B0D80F28AED851
:1034400014994031887131E100F0B5FB10A908767C
:103450000099012900D0E8E60128FCD814994031F0
:10346000C87123E100F0A7FB10A908760099012993
:10347000F1D10228EFD814994031087216E100F01A
:103480009AFB10A9087600990129E4D10128E2D815
:1034900014994031487209E100F08DFB10A90876BB
:1034A000014600980128D6D10429D4D81498403078
:1034B0004279012A05D1032903D0042901D085725C
:1034C000F4E08172F2E004A801F0D3FC21498842C3
:1034D000C1D8149923310874000A4874E6E004A89E
:1034E00001F0C7FC1B498842B5D8149923310875EF
:1034F000000A4875DAE004A801F0AEFC009980B239
:103500000329A8D8FF28A6D8149920314876CDE001
:10351000009802289FD104A800F035FB00289AD01B
:1035200016A904A800F065FB10A8017E14982030AD
:10353000817612E09C000020BC0100202573000071
:103540002564256400000000B08000000D0A000022
:103550002E3A2D00FFFF0000AAE0002902D0012131
:103560008177A3E08577A1E000F025FB10A908761C
:103570000099012989D1012889D814998031C87608
:1035800094E0009806288ED104A800F0FCFA0028E8
:10359000C5D0149904A89D3100F02BFB0028BED0A3
:1035A00084E00099092993D8202804D0149804AA0B
:1035B000F7A14E300CE014984030857376E0009906
:1035C000092985D8202806D0149804AAF0A15830DB
:1035D00001F0E0FA6AE014984030057666E004A84D
:1035E00001F047FC192109038842149904D90020ED
:1035F000AB3101F0E6FD18E6AB3101F0E2FD1498C5
:103600000121A03001724020044314981499203005
:103610000078C97F00910190DE4A14980292837F5E
:10362000427FDDA1304601F0B5FA3FE000F0C3FA79
:1036300010A9087600990129DDD10128DBD8149959
:103640008031087732E042E03EE000F0B4FA10A9A1
:10365000087600990129CED10128CCD826E016A9F8
:1036600004A800F0C6FA10A8007E02070109120F94
:1036700010A8027600980228BDD8012ABBD80129DB
:10368000B9D814984030C17202730FE004A801F059
:10369000E3FB009980B20329ADD80028ABD0FF2806
:1036A000A9D814998031887600E00443BEA1002097
:1036B00001F0ECFB002801D0FFF751FB204617B0CA
:1036C000F0BD81200002F0E743204002EDE7212019
:1036D0008002EAE710B500220621FDF716FE10BDB4
:1036E000F3B591B0064600F0FDFE054600200E90B1
:1036F000AE48FDF73DF90027AD4C1728277008D0DC
:1037000002DC00283ED19BE01828FCD01C28F9D10F
:1037100093E0A6481038FDF72BF9C00707D0012029
:103720006070A7800146A1480838FDF723F9A0780A
:10373000012803D10220FFF7CDFFA7709D48406A02
:103740000204120C1ED012980F9031460220FDF791
:1037500091FB80B230182038C77705A93046FFF7B3
:10376000A7FA2B2866D1062293A105A801F0A0FB99
:10377000002808D029460622173105A801F098FB39
:10378000002803D06BE02078802101E02078882198
:103790000843207000064DD5687E2B7FEA7EA97E07
:1037A00001AC0FC4287E00908148EB7DA430C26A32
:1037B00083A10F9801F0EEF90F9C0A3605A9304657
:1037C0000A34FFF775FA2C2849D16846007D202875
:1037D00003D15820405D002806D02946583105A85D
:1037E00001F09AFC00283AD105A801F0B5FB021DB2
:1037F0003146204601F02EFC05A801F0ADFB8519ED
:1038000005A82D1D01F0A8FB0419241D21462846FA
:10381000FFF793FA0E9005A801F09EFB054620469F
:1038200001F09AFB28180E3082B202201299FDF79F
:1038300091FA14E0002013B0F0BD0220FDF748FA21
:103840000220FDF7EFF8534A2023521E01210220E7
:10385000FDF718F9022802D16770FDF77EF90E987E
:10386000E9E7F3B599B0054600F03CFE04460020B8
:103870004F4E169030705748FDF77AF800287DD0EB
:10388000222826D15448406A0204120C21D015A8DF
:1038900000901A9F17AB29460120FDF700FC80B26B
:1038A000281800212038C17705A92846FFF700FA1B
:1038B0002B286BD1062240A105A801F0F9FA0028B7
:1038C00008D021460622173105A801F0F1FA002898
:1038D00003D090E03078802101E0307888210843DF
:1038E000307000067ED5607E237FE27EA17E01AE31
:1038F0000FC6207E00902E48E37DA430C26A30A11E
:10390000384601F047F90A3505A928460A37FFF776
:10391000CFF92C286FD16846007D202803D158208C
:10392000005D002806D02146583105A801F0F4FBBF
:10393000002860D105A801F00FFB021D294638467A
:1039400001F088FB05A801F007FB451905A82D1D0E
:1039500001F002FBC419241D21462846FFF7EDF9AA
:10396000169005A801F0F8FA0546204601F0F4FA91
:1039700028180E3082B210A8808A00E035E000904E
:1039800016A301201A99FDF7DCFA34E02AE00000C2
:103990002573000052C30000465725642E25642E6F
:1039A00025642E25643A25640D0A0000300009467E
:1039B0009C00002000020946FFFFFFFFFFFF000000
:1039C00025732563256325632563256325630D0A18
:1039D000000000003000054600020546FFFFFFFF23
:1039E0000000000000201BB0F0BD0023394A022176
:1039F0000120FDF747F81698F5E770B500F072FD65
:103A0000044635493548FFF72CFF0646324933480E
:103A1000FFF766FE0546354328042AD4002D28D03A
:103A2000280702D500F0B6FA0FE0E80602D500F04C
:103A300045FE0AE0E80408D529A001F09DF8002021
:103A400000F0CFF9012000F0CCF9680627D502205C
:103A500000F046FB002180280CD0A820015521460B
:103A6000AB31002001F0ADFB00F028FE0420FCF794
:103A7000D9FF70BDA82001552146AB31002001F0CF
:103A8000A0FB01202034A07200F018FE07200003E4
:103A9000FEF779FFFF20F530FEF766FF01E028060C
:103AA000E7D500F090FA70BD0E484178002910D09B
:103AB00082880D4B00219A4203D28288521C828058
:103AC00000E081808288094B9A4202D301228270F1
:103AD0008180704751C30000F80B0020F8090020D6
:103AE0000D0A00009C000020FFFF0000983A000033
:103AF000F3B5002583B02E462C46039801F02CFA2E
:103B0000C7B2002001900090F81F092839D22EE09A
:103B100001F01AF801680398405D095C202902D081
:103B20002E2811D02DE00A214C43303C01198CB2D3
:103B3000FF2C26D8009901AA50540098401CC0B20E
:103B4000009003281DD810E0FF2C1AD8761CF6B27E
:103B5000042E16D8002401A801F07EF904998919D1
:103B60002039C8770020019000906D1CEDB2BD4255
:103B7000CED301A801F070F904998855012005B051
:103B8000F0BD0020FBE770B5054600240CE000F016
:103B9000DBFF0068295D415C88004840000601D4D5
:103BA000002070BD641CE4B2284601F0D5F9A042A3
:103BB000EDD8012070BD10B50446112801D2FF20B8
:103BC00010BD00F0C1FF0168085D202805D0204627
:103BD00028383F2803D2513C08E0303C06E020461C
:103BE000402C04D9472C02D90446313CE4B220468B
:103BF00010BDF3B587B00746002501F0ADF9C6B298
:103C0000F00706D1102E04D83878002801D00024FF
:103C100026E0002009B0F0BD385D00F09DFFC1B284
:103C20006A461170039138190491407800F094FFAE
:103C3000C0B26A46507004993929039901D93739BD
:103C400000E03039C9B2392801D9373800E03038BE
:103C500009010143089841556D1CA41CEDB2E4B262
:103C6000B442D9D30120D5E7F7B584B00546002486
:103C700001F072F92978C0B2002901D0112802D0D0
:103C8000002007B0F0BD002601AF600020184119E8
:103C90000322684601F0DEF968468178002904D0E5
:103CA000059801F0FBF80028EBD068468670FFF716
:103CB0006AFF0028E5D039196846FFF79AFF641CAF
:103CC000E4B2062CE1D3062201A9069801F0C2F95C
:103CD0000120D6E770B5314C256866172660304E56
:103CE000B047256070BD10B50021420C16D02D4A9A
:103CF000904204D32C4A104201D1102406E02A4AF3
:103D00005242904209D3800C07D1112472B600238D
:103D10001A462046FFF7DEFF62B610BD12240146A8
:103D2000F4E710B5410C07D172B6002301461A46DC
:103D30001320FFF7CFFF62B610BD70B514460A46D8
:103D4000184B1A49984208D3850C06D1FF25013536
:103D5000AC420DD8E3188B420AD8002C01D188421E
:103D600006D801214904FF23411A5B02994201D27E
:103D7000002070BD72B6234601462220FFF7AAFF3D
:103D800062B6204670BD10B50346002002E01C5C00
:103D90000C54401C9042FAD310BD000000E200E039
:103DA0000110FF1F00FE03000001FCFFFFFF0300E6
:103DB00070B50D46144601000BD001290DD0022923
:103DC00001D0032804D11A4621462846FFF7DBFF1D
:103DD00070BD062221462A48F8E71A46214629489E
:103DE000F4E7F8B50026002817D0012817D00228DC
:103DF00019D0032816D101256D04192700242003AA
:103E00004019FFF78EFF641CA4B2BC42F7D33803FD
:103E10004519002E06D000240EE0194800E019488C
:103E2000FFF761FFF8BD07252D03E6E720024019E3
:103E3000FFF759FF641CA4B2B442F7D3F8BD70B5C4
:103E40001C460B46154601000BD0012910D0022953
:103E500001D0032804D1224629461846FFF76DFFFA
:103E600070BD0020FFF7BDFF062229460448F5E794
:103E70000120FFF7B6FF224629460248EEE7000080
:103E800000FE030000FF030035490020C8607047B2
:103E900070B5334C6088401C6080FFF705FE00F071
:103EA00097F9304800250078002808D0E088401CA9
:103EB00080B2E080642802D301202070E5807D215B
:103EC000C900608801F085F9002905D16580A088C6
:103ED000401CA080FEF7B8FC3C21A08801F079F9D5
:103EE000002903D1A580A068401CA06070BD10B55A
:103EF0001B4CE068411CE160232803D3FFF7C8FF97
:103F00000020E06010BD30B50124174985B02003C2
:103F10000860164D2846FCF7DDF9FCF761F97D21B4
:103F2000C90001F056F9009000200490029001941D
:103F3000694603942846FCF70DFA01212846FCF750
:103F40001FFA2846FCF72FFA05B030BD04488068F8
:103F50007047034880887047014840887047704721
:103F6000AC0100209800002000E100E000100040BB
:103F70001FB56846FCF7BEFB69460548FCF7CBFB5E
:103F80001FBD10B5E1204002FCF773FC10BD00001E
:103F900000D0004010B500F0A7FA00F08FFB10BD74
:103FA00010B59F48FCF7E4FC172808D01C2806D061
:103FB0000220FCF737FD0120FCF734FD10BD022084
:103FC000FCF786FEF7E7FFF7EBFFBFF34F8F96494D
:103FD0009448C860BFF34F8FFEE7944800210170FA
:103FE00081708180C1804170C1707047F3B581B02C
:103FF00000F078FA06460020044600900198A836A2
:1040000087048B483818FCF7B3FC884D172808D074
:1040100002DC002862D152E0182850D01C285DD163
:1040200044E0834810383818FCF7A2FCC0070AD0D7
:104030000120A8700220FFF7D4FE7D480121083836
:104040003818FCF797FCE878012833D079483818FD
:10405000406A0404240C41D00120C002844200D9EB
:104060000446F01C01F09CF8E9680A19904201D25C
:10407000401A84B2224602990198FCF7FBFE84B2F2
:10408000E868210A0019E86068460170447002225D
:1040900069460198FCF75EFE0027EF80F01C01F0F6
:1040A0007FF8E968884219D8AF80AF700198FCF7B3
:1040B0000FFE13E00198FCF70BFE0020FEBD20234D
:1040C0005D4A01210198FCF7DDFC0146019881421F
:1040D00004D10020E8600198FCF73FFD2046FEBDBA
:1040E000F8B5044600F0FEF90646A83600F0FAF9E5
:1040F000054630784535202700280FD0F01C01F008
:104100004FF819221203002801D0904208D9297AC9
:10411000012903D10146494800F02EFD4020F8BD99
:10412000022C02D0042C46D039E0297A012903D18F
:10413000014643A000F020FD00203C4C0121A0607E
:1041400021704E490420FFF751FF03000DD00720D6
:10415000A16800030918494A0220FFF770FEA16810
:1041600080B20818A0600020A080607801280BD0E1
:10417000E07801280DD0FFF7BAFEF01C01F010F82E
:10418000A1688842DDD80BE0287A012807D13CA03D
:1041900003E0287A012802D147A000F0EDFC402777
:1041A000F01C00F0FDFF2149896888420CD12A7A71
:1041B000012A04D007E04E4800F0DEFCAEE70246DC
:1041C0004CA000F0D9FC8027FFF707FF3846F8BD68
:1041D00030B51648534A0578534B01240021012D70
:1041E0000CD18588954203D285886D1C858000E0BE
:1041F000818085889D4201D3447081808578012D1E
:104200000CD1C588954203D2C288521CC28000E0FE
:10421000C180C2889A4201D3C470C18030BD000001
:10422000300009460400FA0500ED00E0C40100205A
:10423000300001460002014652C3000098600000B1
:10424000203E2053454743503A46575F555044411E
:1042500054453A4E4554574F524B202D20466972D3
:104260006D776172652073697A653A205B25645DBC
:104270002062797465730D0A00000000F8010020C7
:10428000203E2053454743503A46575F55504441DE
:1042900054453A4641494C4544202D204669726DAB
:1042A00077617265207570646174652074696D65ED
:1042B0006F75740D0A000000203E2053454743509F
:1042C0003A46575F5550444154453A4641494C455A
:1042D00044202D204E6574776F726B20646F776E6B
:1042E0006C6F61642074696D656F75740D0A0000F0
:1042F00000610000203E2053454743503A46575F37
:104300005550444154453A53554343455353202D4A
:10431000202564202F2025642062797465730D0A9E
:1043200000000000FFFF000088130000FEB50446F7
:10433000022818D2664E6500705B00900120694625
:1043400008716448A700C059FCF76FF86148715BB9
:10435000401F025D801E005DFCF742F95D48715B05
:10436000C059FCF7DEF8FEBD70B5012311249D0392
:10437000A406002229462046FCF75AF9656170BD63
:1043800010B501232120002259024006FCF750F904
:1043900010BD70B5002421256D0602212846FCF7CA
:1043A000ACF8002801D0012070BD0520FEF7DCFA32
:1043B000641CE4B2052CF0D3002070BD10B521249C
:1043C00064060123002202212046FCF731F9022075
:1043D000606110BD10B50120FFF7C1FD3E486121AD
:1043E000016341610122D203432051100006FDF711
:1043F0005DFC0020FFF7B3FDFFF7E0FFFFF7C9FF0B
:1044000000280ED00020334908390870FFF7B8FFA4
:10441000FFF7AAFF0020FFF789FF0120FFF786FFC3
:1044200010BD0120EFE72D49022008632C49886068
:10443000704710B50121212049024006FCF75DF8C4
:1044400010BD10B511200123002240218006FCF789
:10445000EFF810BD10B5112040218006FCF74DF893
:1044600010BD10B50121112089038006FCF745F825
:1044700010BD10B5022807D2154A4100515A154AFD
:1044800080001058FCF75BF810BD10B5022807D269
:104490000F4A4100515A0F4A80001058FCF741F86A
:1044A00010BD022808D20B49820089584A68084B7F
:1044B0004000185A42404A60704710B5044A410013
:1044C000515A044A80001058FCF721F810BD000032
:1044D000EC5E0000DC010020403000414011004152
:1044E00000200041EB487047F8B5EA4DF9202870EC
:1044F00000206870A8700126EE70044628710F2114
:10450000681D00F004FE0922E3A1681D00F0A2FD71
:104510002E7502276F750320A875C0216977A82220
:10452000AA770B232846EB77203007704170827002
:10453000C3700671FF2545718571C571047246729D
:104540008672C172027343730321D64A8173C11C00
:104550000A73130A4B73431C1A74150A5D740C74A6
:10456000250A4D74D04D1D752D0A5D750C75230AF5
:104570004B7544768476C476047744778477C47721
:1045800020300670C94B411C0B701B0A4B70C11CBC
:104590000A70120A4A7044710C258571C671047242
:1045A00044728472C472047346730A21183000F096
:1045B000AEFDB8480A214E3000F0A9FDB5480827E5
:1045C00060308470C470047147718771C77107725D
:1045D0003221093000F09BFDAE482B2180308776D8
:1045E000C676047741778177C177AA4F0F20A0372D
:1045F000387000207870B81C0670310A41703D7127
:10460000290A79710471210A41713C72A849401E3E
:104610000172090A417201460A31002000F0D1FD01
:10462000502038740020787438461330BE741E2130
:10463000044600F06CFD13229EA1204600F00AFD06
:10464000384631302821044600F061FD20229EA129
:10465000204600F0FFFCF8BD10B5FFF7F2FEF9238D
:104660008C4A00210120FFF7A3FB8A4A0021062380
:1046700017320846FFF79CFB864C607821780002D1
:10468000084302D09849884207D1FFF72DFFF9234C
:10469000804A00210120FFF7D2FB01202075022172
:1046A00061750321A1757B4C4034A17A032903D0A5
:1046B000042901D0FFF7CEFE607110BDF0B5754E34
:1046C000002540367D27BFB02C46FF00F923714AF4
:1046D00000210120FFF7B3FBF9236A4600210120E6
:1046E000FFF766FBF92269466A4800F0E1FB002803
:1046F00011D0641C707BE4B2002803D021467BA05B
:1047000000F03AFA3846FEF72FF9052C01D2012DB8
:10471000DCD13FB0F0BD0125F4E710B500F09AFC04
:1047200010BD10B500F096FC10BD10B50446014652
:10473000584806221730FFF7F4FF56480422A11DFF
:104740001D30FFF7EEFF5348214604220E31213081
:10475000FFF7E7FF4F48214604220A312530FFF7D3
:10476000E0FF4C482146042212316530FFF7D9FFA3
:104770004848A17D6030012902D00121C17010BDDF
:104780000021FBE710B54349044606221731FFF725
:10479000C4FF404904221D31A01DFFF7BEFF3D4963
:1047A0002046042221310E30FFF7B7FF3949204659
:1047B000042225310A30FFF7B0FF36492046042293
:1047C00065311230FFF7A9FF32486030C078002809
:1047D00001D0022000E00120A07510BD30B589B0E5
:1047E0002C4D03A90120FDF735F96846427C017C78
:1047F000C07B6B4607C36846837B427B017B45A039
:1048000000F0BAF928462330417B007B09020143BE
:104810006846407D009001916846037DC27C817CA2
:1048200046A000F0A9F96846407F00906846037FE3
:10483000C27E817E4AA000F09FF96846407E0090CB
:104840006846037EC27D817D4BA000F095F908A8E3
:104850004078009008A803786846C27F817F4CA00A
:1048600000F08AF92C462034607A01280FD06420A9
:10487000415D601C0129417C0AD0027C0802A17BB9
:10488000104300910190637B227BE17A8CE0AAE0E7
:1048900091E00000F80D002057495A373530535247
:1048A0000000000088130000B80B0000581B000037
:1048B00052C300006465766963652E77697A77690B
:1048C0006B692E6E657400002F77697A3735307307
:1048D000722F66772F5737353030785F5332455F08
:1048E0004170702E62696E00FFFF0000203E204480
:1048F0006576436F6E6669672075706461746520C4
:104900006661696C65642C2052657472793A202561
:10491000640D0A002023204D41433A2025303258AF
:104920003A253032583A253032583A253032583A02
:10493000253032583A253032580D0A0020232049BC
:1049400050203A2025642E25642E25642E256420CF
:104950002F20506F72743A2025640D0A0000000069
:104960002023204757203A2025642E25642E2564D5
:104970002E25640D0A000000202320534E203A20EB
:1049800025642E25642E25642E25640D0A00000062
:10499000202320444E533A2025642E25642E25647E
:1049A0002E25640D0A00000045A000F0E5F8607AAD
:1049B000032809D017E00A02007C29460243693126
:1049C0004AA000F0D9F80EE0E07A002808D1207B58
:1049D000002805D1607B002802D1A07B002807D0E9
:1049E0004CA000F0C9F84AA000F0C6F809B030BDEC
:1049F0004DA0F6E710B5514C5148E17DFBF7BAFFE9
:104A00004F48217E401EFBF7B5FF4D48617E801E5A
:104A1000FBF7B0FF4A48A17EC01EFBF7ABFF48483A
:104A2000E17E001DFBF7A6FF4548217FC01CFBF778
:104A3000A1FF10BD10B5414C86B0214606221731AA
:104A40006846FFF76AFE214601A804221D310230A4
:104A5000FFF763FE214603A8042221310230FFF74D
:104A60005CFE214602A8042225310230FFF755FEE4
:104A7000214604A8042265310230FFF74EFE60345F
:104A8000E078002801D0022000E001206946887506
:104A90000020FCF7DFFF06B010BD28486030012180
:104AA000C1707047254860300021C17070470146D1
:104AB000224810B50622173000F0CCFA10BD0000D5
:104AC00020232044657374696E6174696F6E204998
:104AD000503A2025642E25642E25642E2564202F2F
:104AE00020506F72743A2025640D0A002023204460
:104AF000657374696E6174696F6E20446F6D61696E
:104B00006E3A202573202F20506F72743A2025644E
:104B10000D0A00002023232055445020313A312033
:104B20004D6F64650D0A000020232320554450205A
:104B3000313A4E204D6F64650D0A0000F80D0020DB
:104B4000036000467047000010B500F007FF001D2D
:104B500010BD00BFF911000010B50446FFF7F4FFC7
:104B60000068005D000704D5DF2C02D02046203805
:104B700010BD204610BD00000FB4054910B503AAB2
:104B8000029800F07FFF10BC08BC04B0184700007A
:104B9000940000200FB41CB5074B06AA7B4469465D
:104BA0000090059800F03FFF0020694600F04EFF9E
:104BB0001CBC08BC04B01847AD0E000070B504461C
:104BC00085690068C10601D5302600E02026C007AF
:104BD00007D070BD62683046A1689047206A401CCB
:104BE00020626D1EF6D570BD70B5044685690078EB
:104BF000C00707D170BD6268A16820209047206A75
:104C0000401C20626D1EF6D570BD70B50C46054681
:104C1000012A05D02878800600D5EA69002302E041
:104C2000012305E05B1C934202D2E05C0028F9D12D
:104C3000A869E618C01AA861286AC0182862284620
:104C4000FFF7BCFF04E06A682078A968641C9047FD
:104C5000B442F8D32846FFF7C7FF70BDF7B500256B
:104C600075291068009914A611D0C046C0460028C6
:104C700002DA404211A608E0009909688A0701D5C6
:104C80000FA602E0490704D50EA6012501E0C046A3
:104C9000C046009F0024243704E000F063FF303159
:104CA0003955641C0028F8D12B463246214600981D
:104CB00000F05CFEFEBD0000000000002D000000C2
:104CC0002B0000002000000070B504460D46214670
:104CD0001068C046C0462188090502D50F4A7A44AB
:104CE00002E00E4A7A440E3223460021243305E0C6
:104CF00006070009360F965D5E54491C0028F7D15F
:104D000020780023000705D5702D03D0002901D09D
:104D100002231132204600F029FE70BD0E12000061
:104D2000F3B50446002081B020622046E168884740
:104D300000287DD0252802D06268A16883E0454F15
:104D400000257F442046E16888472028064608DB86
:104D5000312E06D2B81920380078002801D005433A
:104D6000F0E7A80701D5042085430020E06107464D
:104D7000A0612A2E0AD0304600F0E0FF002827D09C
:104D8000B8000019303E0090866119E00298BA0020
:104D9000121902C8916102902046E1688847012FEC
:104DA000064617D1E06900281FDA202085431CE061
:104DB00000980A2180694843009980193038886139
:104DC0002046E1688847064600F0B8FF0028EFD18A
:104DD000012F0AD02E2E08D12046E16888470646CA
:104DE000202005437F1C022FC3DBA069002803DAC3
:104DF0004042A06101200543E80701D0102085430F
:104E0000002E24D030464138192803D80120C00292
:104E100005432036204625603146029A1546FBF7A9
:104E200073F900280CD0012807D0ED1DE80800E038
:104E30000DE0C0000830029077E72D1D029574E761
:104E400062683046A1689047206A401C6CE7206A7F
:104E5000FEBD0000D211000070B5064600F082FDD4
:104E60000468054630460A22002100F01FFE2C602F
:104E700070BD70B5064600F075FD04680546304605
:104E80000A22002100F012FE2C6070BD10B5024A0B
:104E900000F044FE10BD0000E4010020401ECAB234
:104EA0004178401C8A4202D00029F9D10020704785
:104EB000034610B50B439B070FD1042A0DD308C836
:104EC00010C9121FA342F8D018BA21BA884201D9DA
:104ED000012010BD0020C04310BD002A03D0D3071D
:104EE00003D0521C07E0002010BD03780C78401C52
:104EF000491C1B1B07D103780C78401C491C1B1B49
:104F000001D1921EF1D1184610BD0000034670B5C4
:104F100002460B439B070FD10E4CE60100E008C28E
:104F200008C91D1B9D433542F9D0D9B21170521CDE
:104F300000290DD01B0AF8E70B78491C1370521C8E
:104F4000002B05D00B78491C1370521C002BF3D199
:104F500070BD00000101010130B5441C03E001787F
:104F6000401C00290DD08107F9D10B4BDD0104C88D
:104F7000D11A91432940FAD0001B0A0603D0C01E63
:104F800030BD001B30BD0A0401D0801E30BD0902B7
:104F9000FCD0401E30BD0000010101010346F0B508
:104FA0000B439B072DD1244DEF01042A29D308C8B8
:104FB00010C95E1B9E43121F3E4017D0D8B2E1B20B
:104FC000401A3106014310D198B2A1B2401A3104FF
:104FD00001430AD118022102000A090A401A3102CB
:104FE000014302D1180E210E401AF0BDA342DCD0BD
:104FF00018BA21BA884201D90120F0BD0020C0436F
:10500000F0BD002A01D10020F0BD03780C78401CCF
:10501000491C002B0DD0A3420BD1521E09D003789E
:105020000C78401C491C002B03D0A34201D1521E16
:10503000EBD1181BF0BD000001010101421E5378A5
:10504000521C002BFBD10B78491C1370521C002BF7
:10505000F9D17047F8B5042A2CD3830712D00B7806
:10506000491C0370401C521E83070BD00B78491C4F
:105070000370401C521E830704D00B78491C037038
:10508000401C521E8B079B0F05D0C91ADF0020233E
:10509000DE1B08C90AE0FBF76BF8F8BD1D4608C91E
:1050A000FD401C46B4402C4310C0121F042AF5D208
:1050B000F308C91A521EF0D40B78491C0370401C27
:1050C000521EEAD40B78491C0370401C012AE4D418
:1050D00009780170F8BD01E004C0091F0429FBD262
:1050E0008B0701D50280801CC90700D00270704771
:1050F00000290BD0C30702D00270401C491E0229B0
:1051000004D3830702D50280801C891EE3E70022B6
:10511000EEE70022DFE70000024670B50A4392077F
:105120002AD11E4DEE0104C808C9541B94433440D3
:1051300017D0D0B2D9B2401A2106014310D190B293
:1051400099B2401A210401430AD110021902000A3F
:10515000090A401A2102014302D1100E190E401A09
:1051600070BD9A42DFD010BA19BA884201D9012025
:1051700070BD0020C04370BD02780B78401C491CF4
:10518000002A09D09A4207D102780B78401C491CAA
:10519000002A01D09A42EFD0D01A70BD010101015E
:1051A0000378C2781946437812061B0219438378A4
:1051B000C0781B04194311430902090A0006084379
:1051C0007047020A08704A70020C8A70020ECA7098
:1051D0007047002203098B422CD3030A8B4211D360
:1051E00000239C464EE003460B433CD40022430878
:1051F0008B4231D303098B421CD3030A8B4201D368
:1052000094463FE0C3098B4201D3CB01C01A5241FF
:1052100083098B4201D38B01C01A524143098B424F
:1052200001D34B01C01A524103098B4201D30B0138
:10523000C01A5241C3088B4201D3CB00C01A52415D
:1052400083088B4201D38B00C01A524143088B4222
:1052500001D34B00C01A5241411A00D201465241BB
:10526000104670475DE0CA0F00D04942031000D3DA
:105270004042534000229C4603098B422DD3030A2F
:105280008B4212D3FC22890112BA030A8B420CD33F
:10529000890192118B4208D3890192118B4204D368
:1052A00089013AD0921100E08909C3098B4201D3E8
:1052B000CB01C01A524183098B4201D38B01C01A22
:1052C000524143098B4201D34B01C01A5241030999
:1052D0008B4201D30B01C01A5241C3088B4201D348
:1052E000CB00C01A524183088B4201D38B00C01AF5
:1052F0005241D9D243088B4201D34B00C01A5241CC
:10530000411A00D20146634652415B10104601D358
:105310004042002B00D54942704763465B1000D3E2
:10532000404201B50020C046C04602BD70477047EC
:1053300070470000F0B50C46871A9C410D46861A4E
:105340009D4103D2C01BA141D21963410D0D1F0D18
:10535000C94EEC1BAE435CD07F057F0D0026002FAD
:1053600051D02D05AC46A943DD020123ED0A1B05F2
:105370001D4320231B1B24D41746E74038187141D6
:105380002F46E740CC199D402818314661410C0D4D
:1053900027D161449A4013D50023401C5941520043
:1053A0000ED14008400001224B005205D34207D3E2
:1053B00005204007C14201D5B04900E0B049304660
:1053C000F0BD6B00002A00D001229A181F23203C58
:1053D0001B1B01D5002302E0E540281871410C0D8C
:1053E000D7D0012424050919C407CD07400849086E
:1053F000E40F28436144002CD5D00024401C6141B7
:105400009A40D0D1CDE76A05520DD9D1C90FC9074D
:10541000D5E79C4D4E00002801D0012400E0002477
:1054200034195F00002A01D0012600E00026BE19D1
:10543000954FAC420CD8AE420AD8B44206D00125F2
:105440006D05EC42BCD010461946F0BD9942FCD027
:1054500000203946F0BDF0B51FB40C460F46811A46
:105460009F412546861A9D4106D20125ED076F40D2
:10547000401ABC4152187B41210D1E0D8D1BAC46BC
:105480007D4D8D437ED075056D0D7CD00D05AE46EE
:10549000AC431B031B0B794D52429D4120236646B2
:1054A0009B1B14D31746F740381800260090744110
:1054B00060462F460741E41900989D402818664130
:1054C00016D4714671189A4025D5012320E093180F
:1054D0002A466A415200002B00D0521C1E23203E57
:1054E0009B1B002B61DD3541EE1728186641E8D57E
:1054F000001876415B1C9A4000D3401C4B05F31802
:105500001524E34010D3002B52D071467118D30FED
:10551000C01802D3491C05B0F0BD0123DB079A4235
:10552000F9D140084000F6E701225205B21801D136
:10553000002853D00123CC0ADB029943891E002A9C
:1055400008D1020C03D0020C0004103902E002461C
:10555000002020390023550B05D112020823550BDA
:1055600001D152010D23550C01D112011B1DD50C87
:1055700001D192009B1C150D01D152005B1C20250E
:10558000EE1A01E02CE022E00546F5401543984074
:10559000CA1AE10769181305C918002ABBDA0320E3
:1055A00040070818C10FC9070FE071466118B2E73C
:1055B000F10740080843711071444A000CD00123E0
:1055C0005B059A42A7D2C90FC9070020A3E7490586
:1055D000490D26D1002001E00028F4D100219AE7EE
:1055E000284D6600002801D0012100E0002171183B
:1055F0005F00002A01D0012600E00026BE19224FDC
:10560000A94210D8AE420ED8B14208D001256D058E
:10561000E94206D01946A802414010467BE79C4269
:1056200001D0214677E70020394674E710B50C46D3
:105630005C4005D50124E4076340FFF70CFF10BD73
:10564000FFF778FE10BD30B40C465C4004D5012451
:10565000E407634030BC6DE630BCFCE670B5012465
:10566000E40761400D465D4002D4FFF763FE70BD64
:105670006340FFF7F0FE70BDFF0700000000F0FF81
:105680000000F07F0000E0FF0000F87F0346CA0240
:10569000400D10B510430A1504D00124E40720433F
:1056A000002A05DB0A4CA21A04D4D040FF2A00DDF0
:1056B000002010BD4A00002B01D0012000E0002096
:1056C000101801225205D042F2D8C817C04310BDAD
:1056D0001E0400000121C9050123411842001B06D8
:1056E000D3185B0E0AD0C1100722D20689184007D2
:1056F0005242D14201D5520089187047090208D59B
:105700000146002A03D0C10FC90700207047104688
:105710007047420202D00020024970470721090564
:105720000143F4E70000F87FF0B5FF252D04C6091A
:10573000C209FF2704462E400137CB093E434840AB
:105740002A402B400746002A6BD0002B69D0AA4282
:1057500067D0AB4265D0002800DA32460125ED055E
:1057600029432C4309022002090AD21A4B0C7F2438
:10577000E31A434C000A7C44E35C7D2424041219A0
:1057800014145B00A218884201D3521C00E04000B0
:1057900049420C465C4324115C43DB016415E31869
:1057A000040A5C43C502200D0C4644436419250AD3
:1057B0005D432303EC0C0D46654300030019EB1811
:1057C0004C42A34201D35B18401CD4052018002B87
:1057D00007D05B00C91804D3401C002901D1400840
:1057E00040003F2189048A4209D3002A08DC1106BF
:1057F000090F04D0032149074018C00FC007F0BDAE
:1058000001224100120689187F2252069142F6D2E7
:1058100005214907C84201D59010F0BDFF20C00501
:10582000F0BD002F00DA32461648AA4207D2AB423A
:1058300005D21902090E17D0F80FC007F0BDFF25D9
:1058400063002D06AB42F9D84900A942F6D8AB4215
:1058500001D1A942F2D0A94201D1002101E06100A9
:105860004908D0050843F0BD1102090EFBD0FF2006
:105870000243D005F0BD0A460146104654E7000039
:10588000AF0700000000C07F0102C21504D0012351
:10589000DB071943002A0ADB9E239A1A02D4084622
:1058A000D0407047FF2241001206914201D90020EA
:1058B0007047C017C04370471F22030C02D10F224C
:1058C00000041CD0030E01D10002083A030F01D1DD
:1058D0000001121F830F01D18000921E002801DBFE
:1058E0004000521ED2055118021251181922904040
:1058F00004D3491C002801D14908490008467047D3
:10590000C10FC90700D04042012292071143D3E7DB
:1059100001218907D0E7000010B5FF22C30D134015
:1059200009D05A4007D0914205DA5C42A14202DD1B
:10593000C905081810BDC40FE407002B06D0002AC3
:1059400006D0002902DBFF20C0050443204610BD1D
:105950004102FCD0004810BD0000C07F00487047E5
:10596000140F002000487047F40E0020FFB50446D5
:105970000D4681B0243000902168880604D510229D
:10598000E0699143216000E00120A84201DD471B4E
:1059900000E000270498A1697A191018081AA0617C
:1059A0002078C00602D42046FFF708F9002608E058
:1059B00003986268A168805D9047206A401C761C4D
:1059C000206204988642F3DB2078C0060AD5204680
:1059D000FFF7F4F806E06268A16830209047206A7B
:1059E000401C206238467F1E0028F4DC07E0009847
:1059F0006268A168405D9047206A401C206228468A
:105A00006D1E0028F3DC2046FFF7EEF82078000634
:105A100002D5022005B0F0BD0120FBE701694A1C58
:105A200002610878704700B58FB00291002105919E
:105A30000549019379440391114604906846FFF7A4
:105A40006FF90FB000BD0000E5FFFFFF0A6810709E
:105A5000521C0A60704710B54369002B02D0C04643
:105A6000C04601E0FFF7D1F8012010BD12780146D1
:105A700024310A7000224A700122ECE711680022EA
:105A8000D243E8E7084B70B50D467B44FFF7CBFFE8
:105A900004462846FCF73DFF002802D00020C04302
:105AA00070BD204670BD00006FCEFFFFF7B50F46FA
:105AB0000026009C2578641C002D05D0FFF744F8D3
:105AC0000068405DC007F5D12B2D02D02D2D18D0D8
:105AD000641E3946029A204600F05CF8002F04D07C
